:10000000000002209901000029230000E1220000E5
:10001000E1220000E1220000E1220000E1220000D4
:10002000E1220000E1220000E1220000292300007B
:1000300029230000E122000029230000D122000032
:100040002923000029230000292300002923000080
:100050002923000029230000292300002923000070
:100060002923000029230000292300002923000060
:100070002923000029230000292300002923000050
:100080002923000029230000292300002923000040
:100090002923000029230000292300002923000030
:1000A0002923000029230000292300002923000020
:1000B00029230000292300002923000061230000D8
:1000C000292300008D24000029230000B925000009
:1000D00029230000B1260000292300002923000065
:1000E00029230000292300002923000029230000E0
:1000F00029230000292300002923000029230000D0
:1001000029230000292300002923000029230000BF
:10011000292300008914000029230000292300005E
:10012000292300002923000029230000292300009F
:10013000292300002923000029230000292300008F
:100140002923000029230000A927000029230000FB
:10015000A1280000292300002923000029230000F2
:10016000292300002923000029230000292300005F
:10017000292300002923000029230000292300004F
:10018000292300002923000029230000292300003F
:100190002923000029230000584B4CF2205210B5AF
:1001A0001A804DF628121A8000BF00BF02F0C0F876
:1001B000534B4FF030621A60524A9A60524ADA60EA
:1001C000524B4FF470021A60514A136813F4807353
:1001D00004D150490B604FF4A85313604E4B1A786A
:1001E000110703D51A7842F008021A704B4B4C499C
:1001F0002A221A704B4A4C4B8B4204D252F8040FFD
:1002000043F8040BF8E7494B494900228B4202D2DC
:1002100043F8042BFAE74749474A002352F82300E2
:1002200041F823000133662BF8D1444B444A802126
:1002300003F8011B9342FBD1424B3E4A1A60424BEA
:100240008A221A70A3F5805324225A70A0221A70B1
:100250009A799207FCD59A79D406FCD43B4A9379D3
:1002600003F00C03082B394BF9D103221A714622F3
:100270005A719A799006FCD5344A9179334B4906E4
:10028000FBD5334A4FF08271116009215160202261
:100290001A709A7902F00C020C2AFAD12D4B2E4AD0
:1002A0001A602E4B2E4A1A6000225A60072243F829
:1002B000042C2C4AC3F80C2D62B600F099FF154BA4
:1002C0001B68DA0705D5284800F018FF274B284A95
:1002D0001A60284B1B785B0609D5244C244B2268F6
:1002E0009A4204D1204800F009FF0023236002F065
:1002F000B5FB02F023F801F09BFFFEE70E2005405E
:1003000030800440823F04000100002B88ED00E0B3
:1003100010D0034014D0034002D0074000E0074053
:10032000780DFF1F7C2E00001808FF1F780DFF1F9F
:100330009412FF1F0002FF1F0000000000E400E015
:1003400056E400E008ED00E00050064000400640A2
:100350004480044004800440C010050014E000E024
:10036000BFD401000000202051061B5B1CE00340AD
:10037000A5C3945A00F00740FFFFFFFFFFFFFFFFF8
:10038000FFFFFFFFFFFFFFFFFFFFFFFFFFFFFFFF7D
:10039000FFFFFFFFFFFFFFFFFFFFFFFFFFFFFFFF6D
:1003A000FFFFFFFFFFFFFFFFFFFFFFFFFFFFFFFF5D
:1003B000FFFFFFFFFFFFFFFFFFFFFFFFFFFFFFFF4D
:1003C000FFFFFFFFFFFFFFFFFFFFFFFFFFFFFFFF3D
:1003D000FFFFFFFFFFFFFFFFFFFFFFFFFFFFFFFF2D
:1003E000FFFFFFFFFFFFFFFFFFFFFFFFFFFFFFFF1D
:1003F000FFFFFFFFFFFFFFFFFFFFFFFFFFFFFFFF0D
:10040000FFFFFFFFFFFFFFFFFFFFFFFFDEF9FFFF23
:1004100010B5054C237833B9044B13B10448AFF33E
:1004200000800123237010BD780DFF1F0000000025
:10043000802E0000084B10B51BB108490848AFF3E7
:1004400000800848036803B910BD074B002BFBD0A0
:10045000BDE81040184700BF000000007C0DFF1FE2
:10046000802E0000780DFF1F000000002DE9F843EA
:10047000DFF80891DFF808813B4F3C4E3C4C3D4D86
:1004800002210F2000F060FE48460F2100F0D6FB4D
:100490004846052100F0F6FB0221092000F054FE39
:1004A0004046092100F0CAFB4046052100F0EAFB66
:1004B00002210A2000F048FE38460A2100F0BEFB67
:1004C0003846052100F0DEFB02210B2000F03CFE47
:1004D00030460B2100F0B2FB3046052100F0D2FB84
:1004E00002210C2000F030FE20460C2100F0A6FB7B
:1004F0002046052100F0C6FB02210E2000F024FE5C
:1005000028460E2100F09AFB1B4C2846052100F0DE
:10051000B9FB0221182000F017FE2046182100F038
:100520008DFB2046052100F0ADFB0121022000F0EB
:100530000BFE0121032000F007FE0121042000F042
:1005400003FE0121052000F0FFFD0121062000F03F
:10055000FBFD0121072000F0F7FD01210820BDE887
:10056000F84300F0F1BD00BFE00DFF1FF00DFF1FCD
:10057000D40DFF1F000EFF1FA40DFF1FB80DFF1F9E
:10058000980DFF1F2DE9F04F13488BB000F07CFB56
:10059000124800F079FB124800F076FB114800F099
:1005A00073FB114800F070FB104800F06DFB104821
:1005B00000F06AFB0F49104A0B680893089B10680B
:1005C0001B1A132B1AD8002001F09AFC0028FAD12C
:1005D0000BB0BDE8F08F00BFB80DFF1F980DFF1FD7
:1005E000E00DFF1FF00DFF1FD40DFF1FA40DFF1F17
:1005F000000EFF1F140EFF1FC80DFF1F0B6809938D
:10060000099BC648136000F083FBC54B1A689042F3
:10061000C44A116802D008B90131116011F001011A
:10062000186000F057820820012100F079FDBE48D3
:1006300001F0FEFBBD4800F06BFBBD4B1A68904219
:10064000BC4A116802D008B90131116011F00101F2
:10065000186040F04E82022000F062FDB64801F0C2
:10066000E7FBB64800F054FBB54B1A689042B54A18
:10067000116802D008B90131116011F00101186050
:1006800040F02F82032000F04BFDAF4801F0D0FB7B
:10069000AE4800F03DFBAE4B1A689042AD4A11687F
:1006A00002D008B90131116011F00101186040F069
:1006B0004082042000F034FDA74801F0B9FBA748B0
:1006C00000F026FBA64B1A689042A64A116802D099
:1006D00008B90131116011F00101186040F0218268
:1006E000052000F01DFDA04801F0A2FB9F4800F08E
:1006F0000FFB9F4B1A6890429E4A116802D008B9BE
:100700000131116011F00101186040F002820720F0
:1007100000F006FD984801F08BFB984800F0F8FACD
:10072000974B1A689042974A116802D008B9013174
:10073000116011F00101186040F0E381062000F023
:10074000EFFC914801F074FB252000F0F7FB5FEA15
:10075000C01A4FF0160048BF0AF2FF3A00F0EEFB55
:10076000A0EB8010400048BF00F2FF308712262027
:1007700000F0E4FB5FEAC0194FF0100048BF09F237
:10078000FF3900F0DBFBA0EB8010400048BF00F217
:10079000FF308612112000F0D1FBA0EB801040004A
:1007A00048BF00F2FF308512122000F0C7FBA0EB1B
:1007B0008010400048BF00F2FF308412132000F088
:1007C000BDFBA0EB8010400048BF00F2FF30831259
:1007D0007F334220029300F0B1FBA0EB8010400079
:1007E00048BF00F2FF308312142003F17F0B00F0AA
:1007F000A5FBA0EB8010400048BF00F2FF30831241
:100800007F331720019300F099FBDFF88C81C00142
:1008100088FB00320244C317C3EB62231F200793F7
:1008200000F08CFBC00188FB00320244C317C3EB0D
:1008300062232020069300F081FBC00188FB003278
:100840000244C317C3EB62232120059300F076FB1B
:10085000C00188FB00320244C317C3EB622322208D
:10086000049300F06BFBC00188FB00320244C31705
:10087000C3EB62232320039300F060FB434B1A6811
:10088000C00188FB00384FEAAA2A511C08EB00037C
:1008900051454FEAE07007F17F074FEAA92906F1B9
:1008A0007F0605F17F0504F17F04C0EB632802DBBE
:1008B000013A52450CDD4FEA0A6000F0FE4040F07C
:1008C0000B1040F4304001F0B3FA304BC3F800A0F5
:1008D000DFF8C8A0DAF800305A1CBA4202DB013B4C
:1008E000BB420ADD380600F0FE4040F46B2040F0C9
:1008F0000B0001F09DFACAF80070254F3B685A1CA6
:100900004A4502DB013B4B454CDD4FEA0963214878
:1009100003F0FE43184301F08BFA41E0B80DFF1FCE
:10092000D00DFF1FCC0DFF1F0BB0227F980DFF1FB6
:10093000EC0DFF1F6008FF1F0BB02300E00DFF1F31
:10094000FC0DFF1F2C08FF1F0BB02400F00DFF1F34
:10095000C40DFF1F5408FF1F0BB02500D40DFF1F4F
:10096000B40DFF1F5808FF1F0BB02600000EFF1F1D
:10097000940DFF1F4808FF1F0BB02800A40DFF1F98
:10098000B00DFF1F4408FF1F0BB027003808FF1FE2
:100990003C08FF1F0BB01C00AF5279913408FF1FB9
:1009A000C7F80090674F3B685A1CB24202DB013B1C
:1009B000B34207DD3306644803F0FE43184301F0F9
:1009C00037FA3E60614E33685A1CAA4202DB013B93
:1009D000AB4207DD2B065E4803F0FE43184301F0EF
:1009E00027FA35605B4D2B685A1CA24202DB013BA3
:1009F000A34207DD2306584803F0FE43184301F0E5
:100A000017FA2C60554C029823685A1C824202DB6C
:100A1000013B834208DD029D51482B0603F0FE4353
:100A2000184301F005FA25604E4C019823685A1CC2
:100A3000824202DB013B834208DD019D4A482B06CE
:100A400003F0FE43184301F0F3F92560474C236897
:100A50005A1C5A4502DB013B5B4509DD4FEA0B633B
:100A6000434803F0FE43184301F0E2F9C4F800B034
:100A7000079B40481B0603F0FE43184301F0D8F9DA
:100A8000069B3D481B0603F0FE43184301F0D0F9D6
:100A9000059B3A481B0603F0FE43184301F0C8F9D2
:100AA000049B37481B0603F0FE43184301F0C0F9CE
:100AB000039B34481B0603F0FE43184301F0B8F9CA
:100AC0004FEA0868304808F0FE4848EA000001F0A4
:100AD000AFF978E5082000F023FB2C4801F0A8F9D5
:100AE000A8E50121032000F01BFB294801F0A0F933
:100AF000CEE50121022000F013FB264801F098F911
:100B0000AFE50121062000F00BFB234801F090F92E
:100B10001AE60121072000F003FB204801F088F9C4
:100B2000FBE50121052000F0FBFA1D4801F080F9EA
:100B3000DCE50121042000F0F3FA1A4801F078F90D
:100B4000BDE500BF5008FF1F0BB015005C08FF1F7C
:100B50000BB010004C08FF1F0BB011006408FF1F02
:100B60000BB012004008FF1F0BB013003008FF1F2E
:100B70000BB01B000BB029000BB01D000BB01E000A
:100B80000BB01F000BB020000BB021000BB02200F7
:100B90000BB0247F0BB0237F0BB0277F0BB0287FD7
:100BA0000BB0267F0BB0257F00B50F4883B000F057
:100BB00039F80E4800F036F80D4800F033F80D48CB
:100BC00000F030F80C4800F02DF80C4800F02AF83E
:100BD0000B4800F027F80B4A0B4B12680192019A60
:100BE0001A6003B05DF804FBB80DFF1F980DFF1FDE
:100BF000E00DFF1FF00DFF1FD40DFF1FA40DFF1F01
:100C0000000EFF1F140EFF1FC80DFF1FC8B2D1B288
:100C100000F09ABA08B5C07A00F088FA003018BF20
:100C2000012008BD044A02600A21002201814260BD
:100C30008272C272704700BFA02B000010B5002264
:100C4000C9B203688272C1721B680C4A934282B0B7
:100C5000044611D1084600F069FA003018BF01209F
:100C600018B1A37A43F00303A372054B1B680193E9
:100C7000019B636002B010BD9847F1E7150C0000BE
:100C8000140EFF1F0181704770B5837A01681E4AF8
:100C900023F0040383720B68934284B0044631D17D
:100CA000C07A00F043FA003018BF0120A37AC3F3E2
:100CB000400290420BD0154A1268019283F0020361
:100CC000019AA3726260C3F3800004B070BD0F4943
:100CD00066680A680292029A2589921BAA42F2D398
:100CE00003F001029042EED00A68039283F0010300
:100CF00043F00403DBB2039AA372C3F38000626083
:100D000004B070BD9847D1E7150C0000140EFF1F0A
:100D1000807A00F001007047374A384913681B0693
:100D2000FCD40B6813F08003F8D172B634490A780A
:100D3000002A5FD0334A3448F0B4344C1768066850
:100D40002568D4680C303E44143200681268304F75
:100D500035442C4420440244C2F34E022D4E2E480A
:100D60002E4D2F4C42F400423A60376806682D68D9
:100D70002C4A24680C303E44006812682A4F3544DF
:100D80002C4420440244C2F34E02284E2848294DE8
:100D9000294C42F400423A60376806682D68274AB9
:100DA00024680C303E4400681268254F35442C44BA
:100DB00020440244C2F34E02224E2348234D244CC9
:100DC00042F400423A60376806682D68214A246878
:100DD0000C303E440068126835442C4420440244E0
:100DE000C2F34E021C4842F4004202600B7062B62D
:100DF000F0BC704762B6704724B0034024B00B408B
:100E00000D0EFF1F38B003403CB0034040B003401C
:100E10002CB0034058B003405CB0034060B00340C6
:100E200064B003406CB0034030B0034038B00B40B6
:100E30003CB00B4040B00B4044B00B404CB00B40BA
:100E40002CB00B4058B00B405CB00B4060B00B4076
:100E500064B00B406CB00B4030B00B4030B429484C
:100E6000294A2A4B2A4D6024E121047011701B7815
:100E7000284C082B30D00A2B2748284937D00C2B78
:100E80000CBF35225D2212232A60236002600B60B2
:100E9000234B24491B78244ABBB101230B60136008
:100EA000224B23491B78234A012B26D9042B0FD927
:100EB000082B1ED9102B94BF862387230B60136049
:100EC0001D4B01221A7030BC70470B601360E7E7BE
:100ED00084230B601360F3E700F58E200F49083080
:100EE000212213232A60236002600B60D0E739229D
:100EF000F7E785230B601360E2E780230B60136044
:100F0000DEE700BF00400740014007406808FF1FC0
:100F100008B003400CB0034008B00B400CB00B40CD
:100F2000100EFF1F20B0034020B00B406908FF1FC8
:100F300024B0034024B00B400D0EFF1F47282FD8CC
:100F4000334B2DE9F0411E5CFF2E2BD0314B1B782B
:100F5000002B2AD132062CD472B62F4D2F4C2F469F
:100F6000012326602B7062B672B623681B060CD470
:100F70003B781BB9F4E72B78002BF1D062B601F077
:100F80005FF972B623681806F5D5254B1B68002259
:100F90002A7062B6234A107843FA00F0BDE8F08167
:100FA000002070470020BDE8F081FFF7B5FE320653
:100FB000D2D572B61C4DDFF87C801C4C06F0400781
:100FC000FFB206F03F06D8F80030DFB123F010037F
:100FD000C8F8003001232660134A2B7062B672B63F
:100FE000236819060CD413781BB9ECE72B78002B77
:100FF000E9D062B601F024F972B623681B06F5D574
:101000000B4BC3E743F01003C8F80030E2E700BF22
:10101000A82B00000D0EFF1F0F0EFF1F00B0034096
:1010200010B003400C0EFF1F0E0EFF1F00B00B4050
:1010300010B00B400CB00B4010B4114B53F83020E3
:1010400092F8804234B1012379B182F880305DF8A2
:10105000044B704703EBC0035B681A6851B922F078
:1010600002021A605DF8044B704782F800315DF8A7
:10107000044B704742F003021A605DF8044B70475E
:10108000F02B00001C4A02EBC00301295B6811D061
:1010900004291BD052F83000002280F8802229B1A8
:1010A000022920D0032922D01A6070474FF48072A1
:1010B0001A60704752F830004FF4A27280F8801224
:1010C0001A601A6822F020021A60704752F8301035
:1010D0004FF4A272012081F880021A601A6842F06F
:1010E00020021A60704740F203121A6070474FF4F2
:1010F00081721A60704700BFF02B000030B4054BBE
:10110000054D064C002210211A602A6020601960EB
:1011100030BC704714D0034004D0034000D00340DB
:101120003F2801D8FFF788BF704700BF3F2806D887
:10113000044B53F8303093F80002C0B270470020DF
:10114000704700BFF02B00003F2801D8FFF79ABF7F
:10115000704700BF2DE9F843054672B6204F214B7A
:10116000214A1B683C68126862B6520102D5322BD4
:1011700088BF013495B3C3F5EA331C4EDFF86490A1
:10118000DFF86480BF334FF47A72A6FB031302FBCF
:1011900004F404EB931472B6D9F800103A68D8F846
:1011A00000E062B6C1F5EA33BF33A6FB03031EF0CD
:1011B000806FC4EB93134FF47A7002D0322988BF4A
:1011C000013200FB0233B3F57A7F04D3013D05D031
:1011D00004F57A74DFE701F033F8DCE7BDE8F88363
:1011E000140EFF1F18E000E004ED00E089888888F5
:1011F000F8B53E4B3E49DFF818C13E4E3E4ADFF897
:1012000014E13E4D3E4C3F4F4FF0006018604FF0F0
:10121000805018604FF0005018604FF08040186008
:101220004FF0004018600020086028234EF6FF7140
:10123000CCF80010CEF8003033600EF5012E1360AC
:101240002B60236005F500253B6004F50024B362A4
:1012500007F50027936206F5012602F501220EF13B
:10126000100E05F6E87504F6E87407F57F6710328E
:1012700020362B602360CEF800303B601360336073
:10128000214EBB61936109223260A7F5002706F564
:101290008056203F083638603160BB60F36047F805
:1012A000042C06F5FD2607F5FE2706F2FC7604372A
:1012B00030603960B360FB6046F8042C0836C7F82C
:1012C000FC0F06F6FC76114831602B60236002604B
:1012D000FFF7C4FD3220FFF73DFF00F0E1FC4FF4C3
:1012E000AF70BDE8F840FFF735BF00BF04E100E094
:1012F00004800340148003401C800340248003408A
:101300002C800340348003400080034000900B4059
:10131000088003400C800340431E032B14D872B690
:101320000A4951F8230068B170B4094C058834F8B3
:101330001320466841F82360521B24F8132062B63C
:1013400070BC704762B6704700207047700EFF1F78
:101350004812FF1F013803280BD872B6074B53F809
:10136000203043B100205B680130002BFBD162B616
:101370007047002070471846F9E700BFC40EFF1FF2
:10138000F0B472B61A491B4E012311F8014B194FE4
:101390009A00240742F0010505D556F8324064B1A1
:1013A00056F83520BAB10133052BEED162B6124B97
:1013B00000221A70F0BC00F0F7BC0F4C0F4D2178E2
:1013C00047F8325007EB431308304A1E586022702A
:1013D00062B6F0BC70470849094B0A7847F83530C7
:1013E00007EBC5030830013A58600A7062B6F0E7AF
:1013F000F02D00000000FF1FED0EFF1F88004000D1
:10140000C8004000431E032B1DD81B4A400140F07A
:10141000100030B4104472B6184CE25C032A1BD89A
:10142000DFE802F00212151703220D88E25410F0D3
:10143000080F14BFC823882343EA0543083103601B
:10144000416062B630BC704708300222EDE70522E9
:10145000EBE708300422E8E7094A52F8230038B1E4
:10146000084A52F82300416042F8231062B6E9E7C7
:1014700042F82310034AF7E70000FF1FFC0EFF1F8E
:10148000C40EFF1FD40EFF1F2DE9F04FDFF814A389
:10149000DFF814B387B044E0AC4F4FEA930807EB92
:1014A000C809013ED9F8042003F00803F6B2A2F1FE
:1014B000080003F0FF04002B40F0FE8057F838309E
:1014C0001B0C99B222F8081C002B00F0EC80A04BFA
:1014D00022F8064C42F8044C53F82620002A00F06B
:1014E000CD819C4D55F8263058609B4C45F8260020
:1014F00034F81630194424F8161000F035FC002892
:1015000000F0C081954A964B19F0080F00F10800D1
:1015100018BF1346C9F8040047F8383008238AF882
:1015200000309AF80040E4B261071CD58D4B1B785F
:10153000B3B18D490A7802F0FF0322B1013BDBB25F
:101540000B7003B900BE89490A7802F0FF032AB183
:10155000013BDBB20B70002B00F0668100F0B8FCA1
:1015600004238AF8003004F0080303F0FF02002B84
:1015700000F0C6809BF80030DBB21E098CD19A08BF
:10158000724F57F8321007EBC200C1F383010139E3
:1015900040680C2900F28380DFE801F078788181CF
:1015A000818181814281818107000168704D714B89
:1015B00040680193694B47F832306F4E686040F2E3
:1015C000816288B26B4B29600024012190421C602B
:1015D0003C61BC61317000F2E980B0F5D06F80F001
:1015E0000F82B0F5817F00F0DA8100F26B818028F4
:1015F00000F00182822840F0D881A8885F4B00F07B
:101600007F00042800F2D2815D4A800003441470F8
:1016100054701878840740F102831170022174E13C
:10162000544B01931A6832B3564B534E564819889F
:101630003478057840298E4645F0020828BF4FF0DF
:10164000400E002C84F001043470CEEB01010CBF7D
:101650008824C82407EBC80689B285F0010544EA4E
:101660000E447260198047F83840724405700029B2
:1016700066D0019B1A603E4B1A88B2F5A06F0ED15E
:1016800000219A785970414B1A7008E03849404C53
:101690000D68A54200F09980304947F832103D4A64
:1016A000012313703AE72D4A2D4B19F0080F18BF8C
:1016B000134647F8383031E700F076FB364A3749B1
:1016C00052F82630002B00F0E48058688C5D42F818
:1016D000260003F10802C9F80420032C05D8DFE82E
:1016E00004F02C02292602228A551A8819F0080FC4
:1016F0000CBF8823C82343EA024347F838300DE77C
:10170000E00700F19480210600F1D280A20706D5FF
:10171000234A244913780220DBB213700870E306D1
:1017200002D5204B10221A7007B0BDE8F08F0422BA
:101730008A55DAE705228A55D7E703228A55D4E786
:10174000BEF1400F18BF002293E700BF0000FF1F4B
:10175000700EFF1F1C0EFF1F4812FF1FC800400025
:1017600088004000F80EFF1F810EFF1F440FFF1F6F
:10177000E40EFF1F180EFF1F800EFF1FC020074042
:10178000F00EFF1F2C0EFF1FEC0EFF1F98200740CE
:101790002109000394200740C40EFF1FFC0EFF1F09
:1017A000882007408020074090200740B0F5106F48
:1017B00000F03E8140F2A28040F62112904240F0BB
:1017C0001C82A44A0123137069E74C68A2498C4229
:1017D0007FF462AF0178A9297FF45EAF4178452993
:1017E0007FF45AAF8178C2297FF456AFC1786B2954
:1017F0007FF452AF99489A4E0178347881F0010510
:10180000002C41F0020105700CBF8820C82084F034
:10181000010447F8310007EBC101924834700025FC
:1018200005244D60047037E700F0E2FC96E68E4B2D
:1018300088488A491A614FF0020E80F800E08B4F09
:101840000A708B49196099608A4E8B4D8B4C9A6156
:101850000D213970FF213170DFF848E229702270C4
:10186000874D884A8EF800109F27012406F8047CD3
:101870005D600470DA6007B0BDE8F08F43F82600C1
:10188000814D32E6814A47F83800137801331370EE
:1018900044E68B5D032B00F2A78001A252F823F0EF
:1018A0001D1500001D150000F7180000F1180000BC
:1018B0006E49714B80220D2008701A70A2077FF5C7
:1018C0002EAF25E740F20232904240F08E81AA8886
:1018D00002F07F02042A68D86D88002D65D1634824
:1018E000029192001044027842F00202027048E134
:1018F00001238B5512E600238B550FE6B0F5086FD8
:1019000053D16348634A00781070ED888D4280F0AF
:101910009B815248047844F0020C07EBCC01402D27
:10192000AE464FF0010328BF4FF0400E4A6002EB75
:101930000E09CEEB05014FEA0E4802930025C8229E
:1019400042EA080384F0010247F83C303570027027
:10195000DFF814C1424BDFF8048151BBBEF1400FE8
:101960007FF42FAF42F0020207EBC203DFF8F8E08A
:10197000C3F8049095BB0D0445F088059DF8083028
:1019800033704029047009EB01034EF832507FF4A4
:1019900018AF0021404A01981180036011E7AA881E
:1019A00002F07F02042A40F22D81304B0F221A7080
:1019B00007E74029D6D942F002020CEBC200C0F87A
:1019C00004907DB135489DF808501D70403988F865
:1019D000004009F140034CF83200DBE70D0445F00C
:1019E000C805CBE72248EEE719F0080F0CBF022329
:1019F00003238B5592E5274A02211470547084E723
:101A000027494A68002AD0D06C88B5F804E003E082
:101A10000C314A68002AC8D00B88A342F8D14B8801
:101A20007345F5D1240A032C0CBF117809896CE7A2
:101A3000174A0D4CA978117004F1800502E00834B2
:101A4000AC4231D0236A1A06F9D5606A083800F032
:101A5000ABF9F4E79420074001000400EC0EFF1FEF
:101A6000800EFF1F810EFF1F0000FF1FC0200740D8
:101A700088004000882007408020074098200740C9
:101A8000300EFF1F840EFF1F1C0EFF1FED0EFF1FE9
:101A9000F80EFF1FF00EFF1F2C0EFF1FC8004000A6
:101AA000F42D00008C2007406F49704B704A029162
:101AB0007049714D714C059603954FF000098846A9
:101AC00016461D460494286828B1446800F06CF955
:101AD0002046002CF9D100232B60039B30681A4666
:101AE000002342F8293028B1446800F05DF920460F
:101AF000002CF9D100223260029A98F80030114689
:101B0000002241F8042B049A0291023B4FF000019D
:101B100022F81910032B07D8DFE803F04702470229
:101B20004FF0010388F8003009F10109B9F1040F01
:101B300005F1040506F1040608F10108C3D1504B74
:101B4000059EDFF85491DFF85481002119700125BA
:101B500018F8013B09F8043B1B072BD4AC0044F0F8
:101B6000020244F00304002347F8323047F83430CF
:101B7000444B994505F10105EAD13378029383F08E
:101B800001050021894688468E460A463E4804786B
:101B900044F0020C07EBCC030393029B002B039B46
:101BA0005A600CBF8822C822CAE64FF0000388F8AA
:101BB0000030B9E700F0D8F8AC0007EB451300F1AE
:101BC0000802002837D05A60304B47F8343000F014
:101BD000CBF844F0010307EBC30200F1080100B3A6
:101BE00051602B4A47F83320B9E7B0F5A06F7FF476
:101BF000DCAE012300250293C3E740F62122904288
:101C0000F7D0D2E66D88002D7FF4CFAE2148029147
:101C100092001044027822F002020270B1E7022121
:101C200073E6174B44F001021B7847F83200144A60
:101C30000133137093E7124B114A1B78AC00013348
:101C400047F834001370C2E740298E464FF0010375
:101C500028BF4FF0400ECEEB01014FEA0E4802EBD9
:101C60000E090025029391E7D40EFF1F700EFF1F8F
:101C7000C40EFF1FFC0EFF1F1C0EFF1F4812FF1F8C
:101C8000ED0EFF1FD4200740EC0EFF1F8800400020
:101C9000C8004000C0200740C4200740F02D0000CD
:101CA0002DE9F843244C00F067FE002204F188007F
:101CB00023461A605A60083383424FF00001F8D17E
:101CC0001E481F4A0368DFF890E01E4F1E4D1F4E4E
:101CD000DFF88880DFF888C0DFF8889043F480233D
:101CE000036013681A4843F040731360C4F307237A
:101CF0008EF80030C4F307433B70240EFF2302F537
:101D0000C9222C7002F5847288F80030114D8CF8CD
:101D100000303370012389F8003070268EF864108B
:101D20004FF40014102107F82C3C2E700460117041
:101D30000EF1640EBDE8F8830000FF1F34800440FC
:101D400000D80040B0200740B420074010200740D2
:101D500004E100E035E400E09C20074080200740DB
:101D6000882007409420074072B60D480268B2FAF6
:101D700082F30F2B10DC4FF00041D94022EA010220
:101D8000026062B6074803EBC303DB00C218002100
:101D9000C15010465160704762B60020704700BFC6
:101DA0006C08FF1F9803FF1F0D4B0E4AC31AA2FBBE
:101DB00003231B090F2B0CD80B4A127852B972B6A9
:101DC0000A484FF00041026821FA03F31A43026007
:101DD00062B67047064A1278002AF0D0FFF7D0BAF0
:101DE0009803FF1F398EE338ED0EFF1F6C08FF1FAD
:101DF000F80EFF1F38B50B4C21783C29054607D05B
:101E00003B2904D84B1CDBB2074A2370555438BD1C
:101E1000064B1B68002BFAD000220348984700218C
:101E20000123F1E75112FF1F5812FF1F240FFF1F5C
:101E30002DE9F843224E234F3168012380463B7041
:101E4000C1B1214D4B8801EB8300013300220F2BE0
:101E5000C0F808802A7004D84B8000233B70BDE88E
:101E6000F88340230B800320FFF7CCFAFFF77CFFB9
:101E70003060F2E7DFF8549099F80030002BEED094
:101E8000114D47F2617408E0013C12D02B7883B900
:101E900000F0D6F999F800307BB10320FFF75AFA29
:101EA0000528F1D8FFF760FF014630600028EBD02D
:101EB000C8E701232B70BDE8F883BDE8F88300BFB5
:101EC0001C0FFF1F040FFF1F200FFF1FF80EFF1F27
:101ED000094B1B787BB910B5084C216809B14B88B8
:101EE00003B910BD9B000B800320FFF78BFAFFF7AF
:101EF0003BFF206010BD7047040FFF1F1C0FFF1F2A
:101F0000F8B5904E33680746002B5AD01C885A8883
:101F1000910803EB81010432A2428D682AD25A80D3
:101F200005F00F04280AA4F1080300F00F02062BA5
:101F300002F101060BD9042C00F0B380631F022BC1
:101F400052D90F2C78D0022C1CD00020F8BD0FB134
:101F5000BE42FAD1082CC5F303335CD0092C1BD048
:101F60000A2C40F081800A2BEFD1774B774A1B680F
:101F7000022156E01846FFF717FF0420FFF7CCF9BF
:101F80003060CDE7724B714A1B68092111700BB1AB
:101F9000280C98470120F8BD092BD6D12F0E00F050
:101FA000B1806C4B694A1B680121C5F3074411706D
:101FB000F6B2FDB2002B4FD02A4621463046984754
:101FC0004AE0654B1B78002BBFD00420FFF7A4F933
:101FD000034630600028B8D00488002C97D1FFF762
:101FE000E3FE34602046F8BDC0B2FFF703FF052CC6
:101FF00063D15A4A5A4B5B4814681978534A0170A6
:10200000002507201D701070002CC3D001225648F7
:10201000A0470120F8BD082B97D1544B4B4A1B68B1
:102020000021C5F307441170F6B22D0EA3B130465E
:102030002A46214698470FE0494B1B78002B5DD17B
:102040004B4B424A1B68082111700BB1C0B2984734
:10205000C5F30744F6B22D0E4649424A464B0E7070
:1020600014701D700120F8BD0B2C07D10B2B7FF4D1
:102070006CAF424B354A1B680321D2E70C2C51D17F
:102080000C2B7FF462AF3E4B304A1B680421117069
:10209000F6B2C5F307447BB3304621462D0E984770
:1020A000DAE7C0B2FFF7A6FEC5F30740FFF7A2FECE
:1020B000280EFFF79FFE0020F8BDC5F30740FFF78D
:1020C00099FE072C95D1280EFFF794FE91E70E2B71
:1020D0007FF43BAF2B4A1D4B126806211970002A72
:1020E000B6D02C0C6B0C04F07F0103F47E53F6B2D7
:1020F000194330469047E4B22D0EADE7C0B2FFF76A
:1021000079FE22E7194B114A1B681770F6B2C5F326
:1021100007442BB1214630463A4698473D469BE757
:102120001D4699E70D2CD2D10D2B7FF40EAF164B27
:10213000064A1B6805211170F6B2C5F30744002B4F
:10214000AAD1D9E7280FFF1F100FFF1F5012FF1F42
:10215000000FFF1F340FFF1FF80EFF1F240FFF1F7C
:102160005112FF1F5212FF1F5812FF1F2C0FFF1F8B
:10217000180FFF1F5412FF1F5312FF1F300FFF1FB6
:10218000080FFF1F0C0FFF1F140FFF1F38B5164D50
:102190002868E0B101884488A14213DD03191B7A45
:1021A00083B104F10803C2180C1B002302E012F8EB
:1021B000011F21B10133A342F9D1204638BD1C468D
:1021C000204638BDFFF7F0FD0020286038BD074BE2
:1021D0001B780BB9002038BD0220FFF79DF828605E
:1021E0000028D7D1F6E700BF400FFF1FF80EFF1FF2
:1021F0000D4B1B78BBB910B50C4C216803F0FF02E6
:102200004B883F2B07DC07330B4401F1470003F8F1
:10221000012F8342FBD140230B800120FFF7F2F80E
:102220000023236010BD7047380FFF1F3C0FFF1FB6
:1022300008B5FEF71BF9FEF7A5F900F001F8FAE77B
:1022400010B5224C237803B110BD01232370FFF792
:102250009DFFA0B900F074F8B8B900F007F9D0B943
:1022600000F09AF9E8B900F013FA00BB00F08CFA1C
:1022700018BB00F005FB30BB0023237010BD00F03D
:10228000C5FB00F05DF80028E7D000F0B3FB00F0DC
:10229000EDF80028E4D000F0AFFB00F07DF9002855
:1022A000E1D000F0ABFB00F0F3F90028DED000F045
:1022B000A7FB00F069FA0028DBD000F0A3FB00F0D8
:1022C000DFFA0028D8D000F09FFBD5E7450FFF1FAD
:1022D000024A136801331360704700BF140EFF1FDA
:1022E00008B5104C08E0236859050DD423681A0579
:1022F0000FD42368DB0411D423685803F3D5FFF708
:10230000C3F823685905F1D500F02AF823681A05A7
:10231000EFD500F0BBF82368DB04EDD500F04CF9F5
:10232000EAE700BF3480044008B5FFF7D9FF00BFDB
:10233000014B10221A80704700200540704700BFF3
:10234000054A064B10781B78C0B2DBB2984238BF02
:102350004030C01A704700BF4C0FFF1F4D0FFF1FCA
:10236000F0B4384B1A7912F0300F2CD072B6997D38
:1023700001F0FF0200293DD062B6334F334938786F
:102380000D78334E1C46C0B2EDB2431C402BE179B0
:1023900028BF0023AB4202F1FF32C9B21CBFF15487
:1023A000184612F0FF02F0D12A4B1B68C2B23A70F5
:1023B0004BB1A84236BFC5F14005401B4019272844
:1023C000C4BF01221A701F49CA78D2B2150616D4AA
:1023D00052060DD51B4B1B795B0609D51E4B1F49B9
:1023E0001B6800220A7003B11A70164B3C22DA7087
:1023F000F0BC70474022D9795A7462B6E3E70B7992
:102400001C06E5D5164B174E1C783378E4B2DBB2C8
:102410009C420ED0144D01E0A3420AD00133402B60
:1024200028BF00230879E85CC0B2C871087D07287E
:10243000F2D9DBB2034933700B79180644BF7C2311
:10244000CB70C5E700A006404C0FFF1F4D0FFF1FCC
:10245000900FFF1F480FFF1FD40FFF1FD00FFF1F4C
:10246000D80FFF1FD10FFF1F500FFF1F054A064B4C
:1024700010781B78C0B2DBB2984238BF4030C01A27
:10248000704700BF4C10FF1FE10FFF1FF0B4384B27
:102490001A7912F0300F2CD072B6997D01F0FF023C
:1024A00000293DD062B6334F334938780D78334E2A
:1024B0001C46C0B2EDB2431C402BE17928BF00237B
:1024C000AB4202F1FF32C9B21CBFF154184612F000
:1024D000FF02F0D12A4B1B68C2B23A704BB1A8423E
:1024E00036BFC5F14005401B40192728C4BF012253
:1024F0001A701F49CA78D2B2150616D452060DD5E5
:102500001B4B1B795B0609D51E4B1F491B6800221C
:102510000A7003B11A70164B3C22DA70F0BC704797
:102520004022D9795A7462B6E3E70B791C06E5D5E7
:10253000164B174E1C783378E4B2DBB29C420ED0B7
:10254000144D01E0A3420AD00133282B28BF0023F9
:102550000879E85CC0B2C871087D0728F2D9DBB2FF
:10256000034933700B79180644BF7C23CB70C5E751
:1025700000B006404C10FF1FE10FFF1F0C10FF1FA3
:10258000DC0FFF1F5010FF1FE00FFF1F5410FF1F35
:102590004D10FF1FE40FFF1F054A064B10781B78F4
:1025A000C0B2DBB2984238BF4030C01A704700BF9B
:1025B0005C10FF1F5D10FF1F30B42B4B1A7994067F
:1025C0001FD52A48DA790378294901333F2B097846
:1025D000C8BF00238B42D2B203D0264CD9B2E254FA
:1025E0000170254A116861B1244A1278D2B293422F
:1025F00036BFC2F140029B1A9B18272BC4BF012390
:102600000B70194AD378DBB2180611D45A060DD5CF
:10261000154B1B795B0609D5194B1A491B6800221B
:102620000A7003B11A70104B2C22DA7030BC70475C
:1026300011790906EAD5144910480C780178C9B215
:102640008C420DD04A1C272A84BF00210A460F4D18
:10265000054C98BFD1B2AA5CD2B2E2710170D5E745
:102660006C21D170D2E700BF00C006405C10FF1F94
:102670005D10FF1F8810FF1F5810FF1FC910FF1F9C
:10268000CC10FF1FC810FF1FD010FF1F6010FF1FCE
:10269000054A064B10781B78C0B2DBB2984238BFAF
:1026A0004030C01A704700BFD810FF1FD910FF1F5D
:1026B00030B42B4B1A7994061FD52A48DA7903785F
:1026C000294901333F2B0978C8BF00238B42D2B27E
:1026D00003D0264CD9B2E2540170254A116861B189
:1026E000244A1278D2B2934236BFC2F140029B1AFA
:1026F0009B18272BC4BF01230B70194AD378DBB278
:10270000180611D45A060DD5154B1B795B0609D551
:10271000194B1A491B6800220A7003B11A70104B3A
:102720002C22DA7030BC704711790906EAD51449B9
:1027300010480C780178C9B28C420DD04A1C272A67
:1027400084BF00210A460F4D054C98BFD1B2AA5C48
:10275000D2B2E2710170D5E76C21D170D2E700BF2F
:1027600000D00640D810FF1FD910FF1F0411FF1F13
:10277000D410FF1F4511FF1F4811FF1F4411FF1FF9
:102780004C11FF1FDC10FF1F054A064B10781B7809
:10279000C0B2DBB2984238BF4030C01A704700BFA9
:1027A0005411FF1F5511FF1F30B42B4B1A7994069B
:1027B0001FD52A48DA790378294901333F2B097854
:1027C000C8BF00238B42D2B203D0264CD9B2E25408
:1027D0000170254A116861B1244A1278D2B293423D
:1027E00036BFC2F140029B1A9B18272BC4BF01239E
:1027F0000B70194AD378DBB2180611D45A060DD5DE
:10280000154B1B795B0609D5194B1A491B68002229
:102810000A7003B11A70104B2C22DA7030BC70476A
:1028200011790906EAD5144910480C780178C9B223
:102830008C420DD04A1C272A84BF00210A460F4D26
:10284000054C98BFD1B2AA5CD2B2E2710170D5E753
:102850006C21D170D2E700BF00A00E405411FF1FC1
:102860005511FF1F8011FF1F5011FF1FC111FF1FC6
:10287000C411FF1FC011FF1FC811FF1F5811FF1FF8
:10288000054A064B10781B78C0B2DBB2984238BFBD
:102890004030C01A704700BFD011FF1FD111FF1F79
:1028A00030B42B4B1A7994061FD52A48DA7903786D
:1028B000294901333F2B0978C8BF00238B42D2B28C
:1028C00003D0264CD9B2E2540170254A116861B197
:1028D000244A1278D2B2934236BFC2F140029B1A08
:1028E0009B18272BC4BF01230B70194AD378DBB286
:1028F000180611D45A060DD5154B1B795B0609D560
:10290000194B1A491B6800220A7003B11A70104B48
:102910002C22DA7030BC704711790906EAD51449C7
:1029200010480C780178C9B28C420DD04A1C272A75
:1029300084BF00210A460F4D054C98BFD1B2AA5C56
:10294000D2B2E2710170D5E76C21D170D2E700BF3D
:1029500000B00E40D011FF1FD111FF1FFC11FF1F4F
:10296000CC11FF1F3D12FF1F4012FF1F3C12FF1F23
:102970004412FF1FD411FF1F72B6184A184B194991
:102980001160702280211A701A46197013781B0684
:10299000FCD510B5144B84B0186862B6134B144CB8
:1029A000984298BF00EB800001A998BF40000A221E
:1029B00000F02EF801A92046002311F8012B013365
:1029C0003AB10A2B20F8022FF7D11623237004B056
:1029D00010BD5B00DBB2237004B010BD04000240E8
:1029E00000000240000007410C0002407F96980062
:1029F0003809FF1F704700BF704700BF704700BF16
:102A0000704700BF704700BF704700BF704700BFEE
:102A1000F0B44D1E2E46002400E00134B0FBF2F36A
:102A200002FB1300092800F130078ABF3730F8B2E3
:102A3000C0B206F8010F1846002BEED10A195370E8
:102A40004CB1107815F8016F28700133E01A8342F9
:102A500002F80169F5DB0846F0BC704770B50F4E0F
:102A60000F4D761BB61018BF002405D0013455F861
:102A7000043B9847A642F9D10A4E0B4D761B00F055
:102A8000F1F9B61018BF002406D0013455F8043B04
:102A90009847A642F9D170BD70BD00BF702E0000EE
:102AA000702E00007C2E0000702E0000024B13B12F
:102AB000024800F005B8704700000000CD2A000071
:102AC000002301461A46184600F014B838B5074DE1
:102AD000074C2C1BA41005D0013C55F8043D984729
:102AE000002CF9D1BDE8384000F0C8B90000000062
:102AF000000000002DE9F047254C2568D5F8484135
:102B00000646884692469946C4B360681F2817DC7B
:102B1000431C76B104EB80050122C5F888A0D4F8E7
:102B2000881182401143022EC4F88811C5F808911B
:102B30001ED00230636044F820800020BDE8F0879A
:102B4000144B03B34FF4C870AFF300800446D0B108
:102B5000D5F84831002780E88800C5F84841384654
:102B60000123C4F88871C4F88C71002EE1D0D1E73C
:102B7000D4F88C110A43C4F88C21DAE705F5A67461
:102B8000C5F84841C1E74FF0FF30BDE8F08700BF0E
:102B9000602E0000000000000000000000000000A7
:102BA000150C00000D0C0000050E08090D0C0607A1
:102BB0000F0403938E8F050E08090D0C06070F04F2
:102BC000FFFFFFFFFFFFFF8E8F1112848586879125
:102BD000FFFFFFFFFFFFFFFFFF8A8BFFFFFFFFFFEE
:102BE000FFFFFFFFFFFFFFFF0393179701811A927B
:102BF0004008FE4340A004404408FE4344A0044073
:102C00000018FE4300C004403000FE4330900440F2
:102C10003400FE43349004401C18FE431CC00440A2
:102C20001018FE4310C004400818FE4308C00440BA
:102C30000C18FE430CC004400C10FE430CB00440C2
:102C40001010FE4310B004401810FE4318B00440AA
:102C50001C10FE431CB004401410FE4314B004408A
:102C60000418FE4304C004400010FE4300B00440BA
:102C70000008FE4300A004400408FE4304A00440F2
:102C80000C08FE430CA004400808FE4308A00440C2
:102C90001418FE4314C004401818FE4318C0044022
:102CA0000410FE4304B004400810FE4308B0044082
:102CB0006820FE4368D004401400FE431490044092
:102CC0003800FE43389004403C00FE433C900440F2
:102CD0004000FE43409004404808FE4348A00440A2
:102CE0004C08FE434CA004402808FE4328A00440A2
:102CF0002C08FE432CA004406020FE4360D004401A
:102D00006420FE4364D004402010FE4320B0044001
:102D10002410FE4324B004402810FE4328B0044091
:102D20002C10FE432CB004404400FE434490044069
:102D30007000FE43709004407400FE4374900440A1
:102D40006800FE43689004405008FE4350A00440D1
:102D50005808FE4358A004405C08FE435CA00440B1
:102D60005408FE4354A004402018FE4320C00440F1
:102D70002418FE4324C004401008FE4310A0044061
:102D80001408FE4314A004403818FE4338C0044021
:102D90003418FE4334C004403018FE4330C00440B1
:102DA0003C18FE433CC004402C18FE432CC0044099
:102DB0002820FE4328D004402C20FE432CD0044081
:102DC0000020FE4300D004400420FE4304D0044011
:102DD0000820FE4308D004400C20FE430CD00440E1
:102DE0001020FE4310D004401420FE4314D00440B1
:102DF00015191519000100007008FF1F12000000CE
:102E0000000200009C08FF1F730000000022010068
:102E10001009FF1F2100000000210100F808FF1F1A
:102E200009000000000300003409FF1F000000003B
:102E3000010309048408FF1F0000000002030904C5
:102E40001808FF1F00000000030309043809FF1FD2
:102E50000000000000000000000000000000000072
:102E60005009FF1FF8B500BFF8BC08BC9E4670476C
:0C2E7000AD2A000035040000A90B000092
:042E7C00F8B500BFE6
:102E800012034E0043004D0043002D005700570031
:102E90004D00000001000000FFFFFFFFFFFFFFFFEC
:102EA000FFFFFFFFFFFFFFFFFFFFFFFF010000002D
:102EB00001000000FFFFFFFFFFFFFFFF0100000018
:102EC00001000000FFFFFFFF01000000FFFFFFFF08
:102ED0000A040000FFFFFFFF120101010000004093
:102EE000C01685040002010203010000180354000B
:102EF000650065006E00730079006400750069006C
:102F00006E006F0009027300020100C03209040064
:102F10000002010300000724010001410006240211
:102F20000101000624020202000924030103010238
:102F30000100092403020401010100090504024003
:102F40000000000005250101010905830240000081
:102F5000000005250101030904010002030000002F
:102F60000921110100012221000705810340000110
:102F7000070502032000020006C9FF0904A15C75D1
:102F800008150026FF0095400975810295200976F5
:102F9000910295040976B102C000000004030904FF
:102FA0000C03000000000000000000000000000012
:102FB0000000000000000000000000003C0CFF1FAB
:102FC000A40CFF1F0C0DFF1F0000000000000000FC
:102FD00000000000000000000000000000000000F1
:102FE00000000000000000000000000000000000E1
:102FF00000000000000000000000000000000000D1
:1030000000000000000000000000000000000000C0
:1030100000000000000000000000000000000000B0
:1030200000000000000000000000000000000000A0
:103030000000000000000000000000000000000090
:103040000000000000000000000000000000000080
:103050000000000000000000000000000000000070
:1030600001000000000000000E33CDAB34126DE60D
:10307000ECDE05000B000000000000000000000076
:103080000000000000000000000000000000000040
:103090000000000000000000000000000000000030
:1030A0000000000000000000000000000000000020
:1030B0000000000000000000000000000000000010
:00000001FF
